:1000000012C034C32AC02AC084C327C026C025C05A
:1000100024C023C022C021C020C01FC01EC01DC0DC
:100020001CC0EE03F50311241FBECFE5D2E0DEBFF6
:10003000CDBF20E0A0E6B0E001C01D92AD3BB2070D
:10004000E1F710E0C6E2D0E003C02297FE0110D431
:10005000C232D107D1F788D318C4D2CF1F920F92E2
:100060000FB60F9211248F939F93B09B09C080917C
:100070006B0090916C00019690936C0080936B00E4
:100080008FE39CE90197F1F700C000009F918F91E9
:100090000F900FBE0F901F9018950098379A81E22D
:1000A00087B98FE99FE00197F1F700C00000369A09
:1000B0003699FECF84B125B130E0322F2227442774
:1000C00037FD4095542F282B3798009A60E070E355
:1000D00081E190E08DD3CA01B90108950098379A63
:1000E00082E287B93C983F9A3E9886B1877D86B96F
:1000F000379A8FE99FE00197F1F700C00000369A28
:100100003699FECF24B165B13798009A70E0762F0A
:100110006627882777FD8095982F622B6A5071405B
:100120008109910908958627682F62956827062E10
:10013000669566956025062E669560256770082E83
:10014000892F669507946795902D86270694679565
:100150009025862708956093B6000895682F8BEB4D
:1001600090E0EFC21F93CF93DF93182F88B3C1E0C5
:10017000D0E09E010090B60002C0220F331F0A9407
:10018000E2F72095282328BB892FE8DF812FE6DFBF
:1001900088B30090B60002C0CC0FDD1F0A94E2F7CE
:1001A0008C2B88BBDF91CF911F910895CF93C42FE3
:1001B0006093B8002093B70098B321E030E0B90114
:1001C0000090B60002C0660F771F0A94E2F7962BE4
:1001D00098BB97B3B9010090B60002C0660F771FB5
:1001E0000A94E2F7962B97BB98B3B9010090B6003A
:1001F00002C0660F771F0A94E2F7962B98BB97B35D
:100200000090B60002C0220F331F0A94E2F7922B2F
:1002100097BB8BEB90E08FD2BA98C29A80E090E0C7
:10022000A1DF85E092E89EDF80E098EB9BDFB2994A
:1002300003C080E090E0FACF8C2F90E024E0880F9C
:10024000991F2A95E1F7876C90688CDF80E496EA25
:1002500089DF86E096EC86DF82EA94E983DF8CEA28
:1002600092EC80DF8091B700882341F083E89AEC1C
:1002700079DF8091B70090E09E6C05C08BE89AEC26
:1002800071DF8DE29EEC6EDF83E894EC6BDF80E53E
:1002900098E968DF87E79CEC65DF80E090EE62DF3D
:1002A00080E098EC5FDF89E490EC5CDF84E0809391
:1002B000B9008091B8008F7131F085B78C7F85BF10
:1002C0008BB7806402C08BB78F7B8BBF8091B800E7
:1002D000CF910895109271001092BA008FEF9FEFA6
:1002E00090936E0080936D006091B700662329F0B3
:1002F0001ADF90936E0080936D0085E08093B900C3
:100300008DED92E82FCF2091B900253031F020916A
:10031000B900243091F4DEDF10C0209171004091CB
:10032000BA0030E02C5F3F4F50E0241735073CF017
:100330002091BA00273418F4EACF80E0089524E031
:100340002093B90020917100233418F021E020930C
:1003500071002091700026FF0BC03091B800232F50
:100360002F712F3129F02091700023272F7179F6FA
:100370004FEF5FEFBA01FC014083518362837383C7
:1003800081E0089566FD05C0607E8091B8008F71A0
:10039000680F609370008FEF9FEF90936E008093D3
:1003A0006D0080916D0090916E006091B700BBDE92
:1003B00090936E0080936D0086E08093B9008DE38A
:1003C00092E8D0CE1F93CF93DF93EC01162FBA01A2
:1003D00020937100422F50E082E790E04DD2612FD0
:1003E000CE01DF91CF911F91CDCF8091B9008430A4
:1003F00099F06623D1F385B7877E633011F490E1DD
:1004000001C090E0892B85BF85B7806285BF889544
:1004100085B78F7D85BFE9CF0895FF920F931F9316
:10042000CF93DF93F82E88B3C1E0D0E09E01009017
:10043000B60002C0220F331F0A94E2F7209528234A
:1004400028BB892F8BDE082F10E0102F00278F2D5F
:1004500085DE98B30090B60002C0CC0FDD1F0A9471
:10046000E2F79C2B98BB9801282BC901DF91CF9113
:100470001F910F91FF900895CB012BB72F7B2BBFBE
:10048000CCDF2BB720642BBF08951F93CF93DF934E
:10049000EC01162F70E0756EEFDF65E072E8CE01BB
:1004A000EBDF112321F067E072E8CE01E5DF84E0A5
:1004B0008093B900DF91CF911F910895CF93DF937F
:1004C000EC018091B900853099F48091BA008111D6
:1004D0000FC060E070E0CE01CFDF90FD09C06DE09D
:1004E00072E8CE01C9DF84E08093B90081E001C0E9
:1004F00080E0DF91CF910895CF9380E090E032DEED
:100500008091B900853081F580E090EB86DF682F1F
:100510008091BA00811104C09091B700911171C00F
:10052000E091BA0081E08E0F8093BA00F0E0E159CB
:10053000FF4F608380916D0090916E00F4DD909389
:100540006E0080936D00809171002091BA0090E060
:10055000049630E0821793070CF45EC08091BA00D5
:10056000873408F059C05CC08091B90087FF19C07A
:10057000E09171008091B90091E0980F9093B900DB
:10058000ED5FE80FF0E0E159FF4FC08180916D0011
:1005900090916E006C2FC7DD90936E0080936D007C
:1005A0002CC08091B90091E0980F9093B9008330EE
:1005B00001F154F48823B9F08130F1F480916D0099
:1005C00090916E00C92F19C0893059F08A30A1F47A
:1005D000C091B700909171008EEF891B8093B90094
:1005E0000CC0CDE20AC080916D0090916E00C82FC2
:1005F00004C08DE092E8B6DDCAEA8C2F90E09854F2
:100600000DC0E091BA0081E08E0F8093BA00F0E057
:10061000E159FF4F908384CF8DE092E8CF91A2CD36
:10062000CF910895EF92FF920F931F93CF93DF9393
:10063000EC01F62E8A01E22E6FEF27DFCE013EDFBE
:10064000811103C0CE015FDEF9CF2E2DA8016F2DE1
:10065000CE01B8DE62E0CE01C8DE60E0CE01DF91FF
:10066000CF911F910F91FF90EF900FCF1F920F929C
:100670000FB60F9211242F933F934F935F936F9375
:100680007F938F939F93AF93BF93EF93FF9334DF49
:10069000FF91EF91BF91AF919F918F917F916F915A
:1006A0005F914F913F912F910F900FBE0F901F9030
:1006B00018951092BC0008956A3008F069E0862F02
:1006C0008770683008F08062982F906184B7877FC8
:1006D00084BF81B5886181BD91BD81B5806481BDD4
:1006E000089585B7877E806185BF85B7806285BFA5
:1006F00085B7806285BF889585B78F7D85BF85B7B3
:100700008F7D85BF8091BC00861758F31092BC0086
:1007100008951F920F920FB60F9211248F9380911C
:10072000BC008F5F8093BC008F910F900FBE0F9025
:100730001F9018950895D49AD59AD69880E18DB9CE
:1007400008956FB980E48EB98BE18DB9769BFDCFAA
:100750008FB10895613011F46A9A08956A980895E6
:100760008DB18F7C8DB908958BB780628BBF81E08E
:1007700080BD22ED41E06AE086E690E017DD60E0B2
:1007800086E690E082DE88E080B93798009A66E0DD
:100790008AE690E091DF10926C0010926B007894E2
:1007A0006EE18AE690E09DDF80916B0090916C0095
:1007B000909361008093600070DC7093650060939B
:1007C00064008CDC709363006093620026E040E676
:1007D00050E060E086E690E025DFE2CF8AE690E038
:1007E00068DF61E086E690E0B6CC8BEB90E0A2CFCC
:1007F000052E97FB16F400940FD057FD05D014D0AA
:1008000007FC02D046F408C05095409530952195DC
:100810003F4F4F4F5F4F089590958095709561952C
:100820007F4F8F4F9F4F0895A1E21A2EAA1BBB1B2B
:10083000FD010DC0AA1FBB1FEE1FFF1FA217B307AC
:10084000E407F50720F0A21BB30BE40BF50B661FC2
:10085000771F881F991F1A9469F760957095809586
:1008600090959B01AC01BD01CF010895EE0FFF1FD4
:100870000590F491E02D0994FB01DC0102C0019088
:0E0880000D9241505040D8F70895F894FFCFE4
:00000001FF
